:020000041000EA
:1000000000B5324B212058609868022188439860DF
:10001000D860186158612E4B002199600221596106
:100020000121F02299502B49196001219960352056
:1000300000F044F80222904214D00621196600F024
:1000400034F8196E01211966002018661A6600F04E
:100050002CF8196E196E196E052000F02FF8012189
:100060000842F9D1002199601B49196000215960AB
:100070001A491B48016001219960EB211966A021F2
:10008000196600F012F800219960164914480160C1
:100090000121996001BC002800D000471248134993
:1000A000086003C880F30888084703B5996A0420EC
:1000B0000142FBD001200142F8D103BD02B5186610
:1000C0001866FFF7F2FF186E186E02BD00000240BE
:1000D000000000180000070000035F00212200005C
:1000E000F4000018222000A00001001008ED00E03C
:1000F00000000000000000000000000074B24E7A12
:1001000000200420F7010010C3010010C5010010F9
:10011000C1010010C1010010C1010010C101001097
:10012000C1010010C1010010C1010010C701001081
:10013000C1010010C1010010C9010010CB01001065
:10014000CD010010CD010010CD010010CD01001037
:10015000CD010010CD010010CD010010CD01001027
:10016000CD010010CD010010CD010010CD01001017
:10017000CD010010CD010010CD010010CD01001007
:10018000CD010010CD010010CD010010CD010010F7
:10019000CD010010CD010010CD010010CD010010E7
:1001A000CD010010CD010010CD010010CD010010D7
:1001B000CD010010CD010010CD010010CD010010C7
:1001C00000BE00BE00BE00BE00BE00BEEFF3058054
:1001D000103800BEF2EB8871504E0010804E0010B7
:1001E0003402001090A31AE700201F49086006C8D7
:1001F00081F3088810471D48006800282FD10DA4FE
:100200000ECC002902D000F012F8F9E71849194A7B
:10021000002000E001C19142FCD1174988471749ED
:1002200088471749884700BEFDE701C901C29A42C5
:10023000FBD37047804E0010C0000020F80E002055
:10024000B85C00100000042000000420B85C00101E
:10025000001004200010042000000000704709482E
:1002600001F0FAFE0047000008ED00E0000000D0B9
:10027000F80E0020901C0020D11E00105503001025
:10028000C51F00105756000006005250ABB3605314
:10029000DC4B001006005250861C0302EC4B001091
:1002A000060052505422A29DF44B001005005250FB
:1002B000DE65F468B85C0010F8B5C0460448054B2C
:1002C00010B5834203D0044B002B00D0984710BDDB
:1002D000F80E0020F80E0020000000000648074934
:1002E000091A8B10C90FC91810B5491003D0044B57
:1002F000002B00D0984710BDF80E0020F80E00200B
:100300000000000010B5074C2378002B09D1FFF73F
:10031000D5FF054B002B02D0044800E000BF0123AD
:10032000237010BD2812002000000000F84A0010C1
:10033000054B10B5002B03D00449054800E000BF71
:10034000FFF7CCFF10BDC046000000002C120020BB
:10035000F84A001070B5D024802502F0DFF819208B
:1003600000F02CF82406AD04074E6562FA20A56162
:1003700000F0D6FE3000656102F048F8FA208000F7
:1003800000F0CEFEF2E7C046F84A0010094A10B568
:1003900094464024830063441A68C000624080345D
:1003A00014408022520113431C60034B9C4660445E
:1003B000416010BD04C00140004001400123D02233
:1003C0008340120693629361094A40219446830058
:1003D00063441A68C0004A408031114080225201B3
:1003E00013431960034B9C460523604443607047E8
:1003F00004C0014000400140024B18688007C00F54
:100400007047C04600C0064070B5EFF3108C72B65E
:100410000D4D2B68002BFCD0BFF35F8F0724CB085A
:10042000C618C05C01230C40A3401C0004400342DA
:1004300007D118433070BFF35F8F2C608CF31088A6
:1004400070BD100001F0C2FD2C0100D0F8B5474688
:10045000CE46884680B5EFF3108C72B6214D2C68DD
:10046000002CFCD0BFF35F8F9A422CD8D40807270A
:10047000055D061901241740BC402C421FD00721FE
:100480000127894609E0D408055D06194C46390064
:100490001440A1400C00294211D001329342F2D203
:1004A00001204042BFF35F8F00220E4B1A608CF395
:1004B000108800280FDBC0BCB946B046F8BD254304
:1004C00010003570EEE7BFF35F8F00232B608CF3D5
:1004D0001088012040424346002BECD0089801F0E0
:1004E00075FDC0462C0100D00021044B044ABFF327
:1004F0005F8F02C39342FAD17047C046000100D01B
:10050000800100D0044A1078431CDBB2172B00D9BD
:10051000102313707047C046E80D002010B5064B3D
:10052000064C82B00100009318221F232000FFF721
:100530008DFF02B010BDC046484B0010A817002028
:1005400001238340002904D0034A1360034A136047
:100550007047034A1360FBE780E200E000E100E03F
:1005600080E100E001238340014A13607047C046E8
:1005700000E200E0084B10309B688000C358002B5D
:1005800007D0064A00209B1A2F229A424041C0B24F
:1005900070470020FCE7C04600ED00E0EC0D0020B5
:1005A000024B10309B688000C058704700ED00E09F
:1005B00070B50D00EFF3108672B60F4A1368002B6A
:1005C000FCD0BFF35F8F0D4B10309B6884001B592C
:1005D0000B4A934203D09D4201D001F00FFD074B1F
:1005E0009B681D51BFF35F8FBFF35F8F0022024BEB
:1005F0001A6086F3108870BD240100D000ED00E081
:10060000CD010010F0B557464E46DE464546E0B5F2
:1006100085B0060000911700EFF3108B72B66A4A9E
:100620001368002BFCD0BFF35F8F0025674B5D572D
:100630009A46002D00DA8BE06B00654C01935B1944
:100640009B009846A146C1444B4652469B791036C2
:100650001370604BB6009B6899590B1B2F2B33D935
:100660005D4B994200D0ACE0019B42469C465B4BFF
:100670006544AD0063535A4B0232A218043B9B1AE7
:100680001B05584A5B0D651913436B80564B0121BE
:10069000AB80FF23AB71009BEF71AB604B460B430C
:1006A00019004C4B9B689951BFF35F8FBFF35F8F6D
:1006B0000022454B1A608BF3108805B0F0BCBB4696
:1006C000B246A946A046F0BD01200A008243D37974
:1006D0008C46BB4231D84546130044491B1B5B4145
:1006E0005943090D3D4B63533D4B02356519043B9E
:1006F0005B1B1B053B4D5B0D2B43AA464D466B8098
:100700000425AC465546E044131F44441B1B1B05FF
:100710005B0D1D434B46997100999D809960494638
:10072000DF71334B01431360BBE75800C0188000F2
:100730002018C179B94211D902000623D356002BE3
:10074000F3DA0293131D9A462A4B6146039319E08C
:1007500001F054FC002553465D576DE790880293E5
:100760004005131D9A46031561469C464046D444F5
:10077000634604302018181AE0230005400D1B02C0
:100780001843039004235B429C46E14450464B4689
:100790001B1A1B055B0D9C46124B957198466346D0
:1007A000404603439380019B5A199200039BA4186F
:1007B000A380029B0E4AA371009B2260E771A36095
:1007C0006FE701F01BFC4FE7240100D0891C0020DB
:1007D000EC0D002000ED00E0CD01001000A1FFFFB6
:1007E0001C0E002000E0FFFF01BDFFFFAAAA0000D1
:1007F0000148804701BD0000F0B5DE4657464E4631
:100800004546E0B50C0083B0EFF3108872B65D4A40
:100810001368002BFCD0BFF35F8F5B4B5B499A687A
:10082000030010339F00D5598D4239D0A5424AD0DC
:10083000574EAA1B2F2A33D8012292468240914656
:100840004846544A1268104001904846524A106087
:10085000BFF35F8FEFF305829346002A35D09342B2
:1008600001D001F0CBFB2A0053469A4390688442A2
:1008700008D175E04B005B189B00F3189868A04204
:1008800034D01A00062151560029F3DA844253D09D
:10089000019B002B26D04A46404B1A603D4B1A6004
:1008A000394B9B68DD51BFF35F8FBFF35F8F002231
:1008B000344B1A6088F3108803B0F0BCBB46B246D4
:1008C000A946A046F0BD0D00EAE72A0053469A4328
:1008D00090688442D6D1062010561300002809DA09
:1008E0000D0031E04A462C4B1A60D9E70620185615
:1008F000002822DB42001118890074188A46A1687A
:100900009960E179D971062161569971002925DB39
:10091000A488F11A6405241554440919E024090532
:10092000490D24022143998013181D4A9B00117818
:10093000F31899711070ABE713005946002914D1D0
:10094000FF3191711749918015490A789A71164AB9
:100950009B1B5B415A43120D0A7099E71349E2E76A
:100960000620105613000028C4DA114A1149D21A81
:10097000083A5002400D014399800F4952080A433A
:10098000DA8085E7240100D000ED00E0CD01001001
:10099000EC0D002000E100E080E100E080E200E0FA
:1009A000891C002001BDFFFFAAAA000001BD0000B4
:1009B000260E002000F0FFFF00F8FFFF70B5EFF3F8
:1009C000058101240443EFF3108C72B6214A1368A9
:1009D000002BFCD0BFF35F8F1F4B05001F4AED1AA1
:1009E0006D416A43120D1E4D8900AE6852B27658B1
:1009F000A6421CD00621595691421CD012215956AC
:100A0000914222D01E215956914220D02A21595676
:100A10000324914210D0134B19781A708171BFF3DF
:100A20005F8F00220B4B1A608CF3108870BDAB688F
:100A30000D4C5C50EFE700246100091989005B1838
:100A4000FF21997109499980E5E70124F4E702241F
:100A5000F2E7C046240100D0EC0D0020AAAA000055
:100A600000ED00E0891C0020CD01001001BDFFFF5A
:100A7000054B064A1360064A136053609360D360C7
:100A800013615361936170478080808000E400E0CF
:100A900004E400E010B5084B084C82B0010000935C
:100AA000002205232000FFF7D1FC002801DB1F23D3
:100AB000181A02B010BDC046644B00108E1C0020F6
:100AC000024B9C466144890001607047400000343D
:100AD00010B50400FFF716FD01002000FFF7F0FF3E
:100AE000FF232371BFF35F8F10BDC04610B5040014
:100AF000FFF708FD01002000FFF7E2FFFF23A380BE
:100B0000BFF35F8F10BDC04610B504000120FFF792
:100B100005FD034BC3189B002360BFF35F8F10BD1F
:100B200040000034034B9C46614489000160BFF3E0
:100B30005F8F70474000003483680B4810B58446CF
:100B4000614462441201090159189B185C684A68A3
:100B50000120944201D802D00020C0B210BD1A6812
:100B60000B689A42F9D8F7E7FFFFFF0F0A4B1968A5
:100B7000EFF3108072B60A68002AFCD0BFF35F8FD3
:100B80001B68BFF35F8F00221A6080F3108840BF9C
:100B9000002000217047C046501C0020F8B5574681
:100BA00045464E46DE46E0B598460CAB1C780DAB8C
:100BB0001B78070091469A460568002C5ED1AC7BF5
:100BC000002C3BD0660029683619033E89194B7802
:100BD000AB73002B00D1EB7300238B704B700B7049
:100BE0002D4BE218BB6812019B184A461A60424618
:100BF0005A600A9A9A600B9ADA6000238B704B70E5
:100C00000B706B7B9B46002B2BD022005946A868AB
:100C10006B6898472A68002816D05B4658465B00E8
:100C20005B449619033BB070D118D35C002B00D005
:100C300073705B460C706B735C4513D0F0BCBB46A5
:100C4000B246A946A046F8BD5B465B005B44033B49
:100C5000D3189C709119925D002A00D05A705B469F
:100C60000B706C734A464346387D00F0E9FB051E65
:100C70000AD10E9B002BE1D01D70DFE766002968CA
:100C80003619033E8919ABE75346002BF1D12100F9
:100C9000386800F0F9FDECE7FFFFFF0FF0B5DE4626
:100CA00057464E4645460023E0B58BB00893684B47
:100CB0008200D45800239B46099000F02DFB0200CF
:100CC0000B006068EFF3108A72B65646016800297F
:100CD000FCD0B246BFF35F8F21684F7B8C46002F5C
:100CE0002ED0A5685B49A94679180901894449466F
:100CF0000868496805000E00AD1A9E41002E5FDDB0
:100D000002000B00099800F09BFB0023002299468B
:100D1000002306920793002398466368BFF35F8F12
:100D20005A461A608AF310884346002B12D10028D5
:100D3000C3D10BB0F0BCBB46B246A946A046F0BD3D
:100D400000230022994600230692079300230020E7
:100D50009846E2E7089B494618023843C047626854
:100D600005000E00EFF3108A72B61368002BFCD05A
:100D7000BFF35F8F002E41DB2B00334302D023698A
:100D8000002B56D12368D97B002905D01A6848006A
:100D900041185218033A57709A7B002A00D19F736A
:100DA000DF73E268013FD35D0133D3555B462361B6
:100DB0006368BFF35F8F5A461A608AF310887CE736
:100DC000002E02D1002D00D09AE70021604600F0ED
:100DD000D9FC4B461A685B68069207934B469B68A2
:100DE00098464B46DB689946E368DB19013B1B7864
:100DF00008931B020343236100208EE72369002B25
:100E0000C0D0069A079B8021521BB34109068B4232
:100E100002D30122104B524200210491013103916F
:100E2000494601914146200002970091FFF7B6FE26
:100E3000BCE700F071FA2A00330012184B41802100
:100E400009068B42E8D30122034B5242E4E7C04635
:100E5000341C0020FFFFFF0FFFFFFF7F10B5144C75
:100E60006368002B04D00A211248FFF729FE10BD49
:100E70002300114A1021206800F09AFB032000F0A3
:100E80003FFA032000F044FB03200C4900F092FAE3
:100E9000FFF738FB0A4B9C4603232375D0231B0620
:100EA0001B6860446375074B80006060DC60DAE7B4
:100EB000340E0020501C0020390B00109D0C001037
:100EC00040000034341C002000487047340E0020DD
:100ED000F0B557464E464546DE46E0B585B001932F
:100EE00010AB1B780600039300239A4698460092A5
:100EF0007268EFF3108B72B61368002BFCD0BFF34F
:100F00005F8F3568AC7B002C00D16FE067002B68E9
:100F10003F19033FDB195A78AA73002A00D1EA73FC
:100F20004B4AA118B2680901521800980199106043
:100F300051600E9991600F99D16042469A705A7033
:100F40001A706B7B9946002B00D170E02200494655
:100F5000A8686B6898472A6800285BD04B464846CB
:100F60005B004B44D719033BB870D118D35C002BFE
:100F700000D07B704B460C706B734C4558D0F368B7
:100F80001B19013B18787368BFF35F8F42461A60E4
:100F90008BF310885346002B08D10002204305B084
:100FA000F0BCBB46B246A946A046F0BD039B002B51
:100FB0004BD00E9B00200F999847030004000D00B2
:100FC0000B4342D000291ADA009A019B121BAB4155
:100FD0000092019380221206934204D301231D4CF8
:100FE0005B4200930194039B9A4681E77368BFF3C9
:100FF0005F8F1C608BF3108801204042CFE700F028
:101000008BF9802224184D411206009401959542D7
:10101000E9D3E3E74B465B004B44033BD3189C709A
:10102000D119D25D002A00D05A704B460B706C73F8
:10103000307D009A019B00F003FA824600289ED082
:101040002100306800F020FC99E70020A7E7C046A7
:10105000FFFFFF0FFFFFFF7F407D7047F0B50400EB
:101060000D0006267642F717C64636196F4100B5C1
:1010700084B08F4214D811D000F04EF932003B00FA
:10108000121A8B41002B15DC002B3ED020002900CA
:1010900000F080F904B080BCB846F0BD8642EBD9C0
:1010A0000026002700F038F932003B00121A8B416D
:1010B000002BE9DD002302930193154B32000093CE
:1010C00014483B00FFF704FF0028DFDB00239846AD
:1010D000BC46114A114F7B6A9C4504D8B96AB1429B
:1010E000D4D29C45D2D11168EFF3108072B60B6850
:1010F000002BFCD0BFF35F8F1368BFF35F8F4146B7
:10110000196080F3108820BFE5E7002ABED0D1E740
:101110006D0B0010340E0020501C002000400540D4
:1011200070B5060000F0F8F8FA2204000D00002364
:1011300030000021920001F049F880230019694134
:101140001B06994202D3012002494042FFF786FF65
:1011500070BDC046FFFFFF7FF0B5EFF30583CE46BD
:10116000474680B505000C0085B0002B0DD0324AF3
:101170000020536A9C4203D8926A0130AA4232D3BB
:1011800005B0C0BCB946B046F0BD2C4E02930193E9
:101190002B4B0200009330000B00FFF799FE031E5B
:1011A000E5DD20BF7168EFF3108772B60A68002A88
:1011B000FCD0BFF35F8FDAB294463068427B624561
:1011C00016D0FF2201681A408946510088464946D8
:1011D000904441440339897800290BD13269934204
:1011E00010D131610EE0E31A5A1E9341D8B2C7E71D
:1011F000FF221A40F1681B0A8A18013A1278DBB202
:101200009A4214D07368BFF35F8F00221A6087F38D
:101210001088094B00205A6A9442B1D89B6A013069
:10122000AB42ADD2A41A631E9C41E0B2A8E761466E
:1012300000F02AFBE6E7C04600400540340E0020DF
:101240006D0B0010F0B5EFF30582D6464F464646CB
:101250001000C0B51038EFF3108872B6214C236827
:10126000002BFCD0BFF35F8F0123190081401E4D7E
:101270001F006963AA461D4D29601D4D2E78AC469E
:101280003500C5402F402B4215D053465F6A194B9D
:101290008500EB589F4218D36246174B8E43EB589C
:1012A0001670BFF35F8F0022226088F31088002B36
:1012B00006D0984704E0BFF35F8F276088F310885B
:1012C000E0BCBA46B146A846F0BD0C4B92009C4625
:1012D000624413681360BFF35F8F0023236088F3B9
:1012E0001088EDE7280100D0004005403C70054023
:1012F0008D1C00205C1C002088160020D03F05407B
:1013000010B5034B01001800024AFFF77DF810BD2D
:10131000881C0020804B0010034B596A0A00986A11
:10132000596A8A42FAD170470040054070B50400FE
:101330000D00174A536A1900966A536A8B42FAD114
:101340003000190024184D41AB4216D813D0104B71
:101350002A005B6A9D4203D90D494B6A9342FCD334
:10136000934207D10A4A02E0516A994202D1916A36
:10137000A142F9D370BDA642E9D9054B5B6A1C00B6
:101380005A1CEFD0012201246442E5175242E3E7E0
:1013900000400540064A536A9942FCD807D1044BE5
:1013A00002E05A6A914202D19A6A8242F9D37047A6
:1013B0000040054070B504000D00EFF3108672B6D2
:1013C0001A4A1368002BFCD0BFF35F8F002D1BD08F
:1013D0002000FFF7E5F8164981420AD02000FFF708
:1013E000E7F801212000FFF7ABF80123A340114AE1
:1013F0001360114BA400E550BFF35F8F00220B4B2D
:101400001A6086F3108870BD0121A1400A4BA2002A
:10141000D5500A4B20001A788A4305491A70FFF705
:10142000EBF900212000FFF78BF8E5E7280100D059
:101430004512001038600540881600208D1C0020E1
:10144000F0B54F46D6464646C0B507002B4C616AFC
:101450000D00A66A616AA942FAD18B4208D805D06C
:101460000120E0BCBA46B146A846F0BDB242F7D969
:10147000EFF3108A72B6224801680029FCD0BFF34E
:101480005F8F0125BD401F491C4C8846097889465D
:101490002943C9B28C46414660460870391D89000F
:1014A00065630A511849B8004350216A0020294257
:1014B00019D0616A0800A66A616A8142FAD18B423A
:1014C00019D801D1B24216D8CC450BD00B4B1F22F4
:1014D0001D625D6301233A4093400C4A136043460A
:1014E0004A461A700120BFF35F8F0022044B1A6036
:1014F0008AF31088B5E70020F5E7C04600400540B4
:10150000280100D08D1C00205C1C002080E200E03F
:10151000EFF3108C72B60A490B68002BFCD0BFF3B6
:101520005F8F01238340074A0748136202789A437A
:101530000270BFF35F8F00230B608CF3108870473D
:10154000280100D0004005408D1C002070B505002A
:101550000E001400002923D0002A12D080686B6886
:101560009847296800280ED063001B197200033BBE
:101570009219CB18033A9E7088188A5C002A11D100
:101580000470300070BD73009B196200033B121998
:10159000CB18033A9C7088188A5C002A05D1067023
:1015A0002000EFE75A700470EBE75A700670F7E717
:1015B00030B583600023CCB24373013304734260BF
:1015C0008373C4730D000068012C06D9421C0133DB
:1015D000DBB2137003329C42F9D1FF2129404B004A
:1015E0005B18C01800230338437030BD70B5050088
:1015F0000C1E07D0630001681B19033BCB185A78F7
:10160000002A01D1200070BD50008018033809184D
:1016100000204E784870210058702800FFF796FF90
:10162000310004002800FFF7E1FF0600002C26D05F
:101630000028E7D021003200A8686B689847296825
:1016400000280ED073009B196200033B1219CB18BF
:10165000033A9C7088188A5C002A00D05A70067081
:10166000D0E763001B197200033B9219CB18033AB1
:101670009E7088188A5C002A00D05A70047034006A
:10168000C0E7C046F0B557464546DE464E46E0B593
:101690000D006F0001687F19033F0400C85D83B02F
:1016A0000192CA19002850D043001B18033BCB18E5
:1016B0005E78B446002E1AD1019E002E42D0E67B01
:1016C000002E04D073009B19CB18033B5D70A37BE5
:1016D000002B00D1A573E57300282FD10023537090
:1016E00003B0F0BCBB46B246A946A046F0BD7200AE
:1016F0006244033A8A18517888460021517089461D
:101700005970320001002000FFF720FF4346824657
:10171000002B07D05B0021684344033BCB185A7869
:10172000002A16D1424651462000FFF70FFF2168DC
:10173000019BCA19002BC2D10028CFD043001B182F
:10174000033BCB1800219970C8E7019B002BB6D151
:10175000C4E7500080180338091848788346484683
:101760004870587041462000FFF7F0FE5946804609
:101770002000FFF73BFF414602002000FFF7E6FE96
:101780008046CFE7F0B557464546DE464E46E0B5C3
:1017900083B00191457B04006F0000687F19033F0F
:1017A000C15DC219002952D04B005B18033BC3181E
:1017B0005E78B446002E1CD1019E002E44D0E67BFC
:1017C000002E04D073009B19C318033B5D70A37BEC
:1017D000002B00D1A573E573002931D10023280027
:1017E0005370617303B0F0BCBB46B246A946A04635
:1017F000F0BD72006244033A82185078804600209F
:1018000050708146587032002000FFF79FFE43461B
:101810008246002B07D05B0021684344033BCB1872
:101820005A78002A17D1424651462000FFF78EFE13
:10183000019B01002068C219002BC0D10029CDD026
:101840004B005B18033BC31800209870C6E7019B50
:10185000002BB4D1C2E7500080180338091848782B
:10186000834648464870587041462000FFF76EFE98
:10187000594680462000FFF7B9FE4146020020008D
:10188000FFF764FE8046CEE770B5050000292CD036
:10189000437B8B422ED04C0000686418033C041933
:1018A000A278002A21D053009B18033BC25CC618C3
:1018B0008A4202D11BE0002A08D053009B18033B48
:1018C000C3185A788A42F6D162785A7000230122EE
:1018D0002800A3706370FFF7D5FE697B0200280023
:1018E000FFF734FE6873012000E0002070BD6378CC
:1018F0003370EBE701221900FFF7C4FEF2E7C046A0
:10190000F8B5CE464746040080B506200E0000F02C
:101910001FFA051E51D0524B5249E21853425A4108
:101920008023DB039C4692054F4B62441A604F4B69
:101930001A6010008B689843FBD1494B4C4AE3185E
:1019400059424B4180215B0049000620995200F02A
:10195000FFF93100C00000F0B1FBC30932D14022D1
:10196000012190466162A362256BEB0736D4270004
:101970008026E36A00232C3776013E43336006203D
:10198000256300F0E5F94146800000F097FB236BEA
:1019900005009846DB073BD46023E26A5A400E33C9
:1019A0001340336043462363802310229B013B4353
:1019B0001A60304B23630323A3642800C0BCB946DC
:1019C000B046F8BD2C4A93423FD900232B492C4AFC
:1019D0006162A362256B9046EB07C8D52200C02345
:1019E00030329B011343234A06201A60666AA36AB9
:1019F000B601F61800F0ACF9224900F05FFBB60220
:101A00000100300000F05AFB0021FFF78FFCAEE729
:101A10002200C02330329B011343164A06201A606D
:101A2000636AA26A9B019946914400F091F94B4682
:101A300014499B02994600F041FB0100484600F022
:101A40003DFB0021FFF772FCA6E77F229901884643
:101A500002400132520819009044130082E7C04648
:101A60000080FCBF00C0004000E0004000F00040EB
:101A70006C1C002001030000FEFF0000FFFF0000BF
:101A8000C0FF3F004E0E000010B50C2082B000F0E9
:101A9000B5F9FEF7B1FC002810D08B4B8B488B4971
:101AA0008B4A186059609860D960186159619861D3
:101AB000D961186259625A6202B010BD854CA067A4
:101AC00000F0F2F90122844B1A60636C012BFCD107
:101AD0000322824B1A607F4A936B012BFCD10133A6
:101AE00001217F4A7F480093043300F037F9052332
:101AF0007D4A009301217D4800F030F97C4B5A6803
:101B0000FF2A02D8802252005A608022734B6E4C0A
:101B100012011A602169002907D0606900F0CEFA2D
:101B2000013043001B18033BFDD2E022704B71488B
:101B300019680A40026002221968514001320A40C5
:101B4000042102609A681142FCD080216A4A09018E
:101B50001160802252005A60684B2361684B5968BB
:101B6000FF2900D85A60032201215B4B1A60644AA6
:101B700093681942FCD0E023106803406148036079
:101B8000126803234A40022113405D4A03609368B0
:101B90001942FCD080215C4B0901196080215B4B0C
:101BA0004900516063615A4B5A68FF2A00D8596056
:101BB0008022584B12011A60E169002907D0606940
:101BC00000F07CFA013043001B18033BFDD2E023F8
:101BD0004F4A11680B4050490B6080214F4B09015F
:101BE00019608021394B49005160E3614C4B5A68C0
:101BF000FF2A00D8596080224A4B12011A60216ADC
:101C0000002907D0606900F059FA013043001B1821
:101C1000033BFDD2E023424A11680B4042490B606E
:101C20008021424B0901196080235B0053608022B0
:101C3000264BD20223623E4B5968914200D25A6031
:101C400080223C4B12011A60616A002907D060694A
:101C500000F034FA013043001B18033BFDD2E023AF
:101C6000334A11680B4034490B608021334B090122
:101C700019608023DB025360154B6362304B5A6856
:101C8000FF2A02D8802252005A6080222D4B120176
:101C90001A60A169002907D0606900F00FFA0130CD
:101CA00043001B18033BFDD2E023254A11680B407B
:101CB00025490B608021254B0901196080235B00B9
:101CC0005360124BA361F7E6F80E0020006CDC02B3
:101CD0001BB70000008000403CB0004030B0004026
:101CE000002F685900800240008C864700C00240E7
:101CF000308000403090004030A00040001BB70012
:101D00003C8000403C9000403CA00040405973079C
:101D10005480004054B000405490004054A0004013
:101D20006080004060B000406090004060A00040D3
:101D30006C8000406CB000406C9000406CA0004093
:101D40004880004048B000404890004048A0004013
:101D5000014B8000C0587047F80E0020F8B5040011
:101D600021481D0017000E0000F0A8F901003800FE
:101D700000F0A4F9069B29041B0319432368002BD8
:101D800020DB1A4B1A4DE21853425A4180235B0163
:101D90009C461203174B62441A60174B1A601700D7
:101DA000AB689F43FBD1C022231D92011A4321231C
:101DB0002660A06013602368002BFCDA0823E16032
:101DC0001360F8BD3F2322681340B342D9D1A36802
:101DD0001B051B0D8342D4D1EE22E368D2021340CF
:101DE0008B42CED1EDE7C046001BB7000040FDBFDF
:101DF00000C0004000E0004000F000408023024AA4
:101E00009B000343D36270470080054010B58024D7
:101E10001C4BE4051C6000281AD001231A4C1843FF
:101E20001A4BDC611A4C44401C6259629862802152
:101E3000144BC9051960174817490860E021C90407
:101E40001960002A07D18022144B12061A6010BDB7
:101E50000E4BD861EBE753019B1A9B009A18802325
:101E600012015B049A4209D213000D490B60074B23
:101E70005A608022094BD2051A60E8E7094B1A0024
:101E8000F3E7C04600B00540D3C007B0008005406E
:101E90002D3FF84FFCFF01000820014000A0054045
:101EA000241C0020FFFFFF00AA23064A1B01136029
:101EB0002F230549D360054B19605368002BFCDACA
:101EC0007047C0460040024000B0FA000060024087
:101ED0002C4B2D4A70B51A602C4A2D4B2D491A6097
:101EE00014008B689C43FBD12B4D2C4EB54208D27D
:101EF000013E761BB60808CD984723000134B34253
:101F0000F9D1FFF7C1FD264A214B1A60214A936897
:101F1000DB43DB01DD09002BF9D14022214B224CB0
:101F2000224E9A675A671A67DA66B44208D2236863
:101F30002000002B20D00834FEF7D8FDB442F6D3A1
:101F40001B4C1C4EC022B168200000F0AFF9B460F9
:101F5000FEF7CAFAFEF78CFDFEF780FF164C174E0F
:101F6000B44208D2013E361BB60808CC98472B0075
:101F700001359E42F9D170BD0834FEF7A9FDB44287
:101F8000D5D3DDE700E00040BFCDFBFEFE7F3C0087
:101F900000F0004000C00040E00E0020F00E0020E5
:101FA000FFFFFF0100F00140D80E0020E00E0020EE
:101FB0000000002000ED00E0F00E0020F80E0020F0
:101FC00000BEFDE710B5FFF7FBFFC0460FB400B53C
:101FD000084883B000F01AFA049B002B07D005A92B
:101FE0001800019100F018F8034800F00FFA0120E2
:101FF000FFF7E6FFA44B0010B44B001010B50148EA
:10200000FFF7E4FFB84B001010B5002800D110BD59
:1020100000F0B0F9FBE7C04610B5094A03001468A8
:1020200084B0002C08D0012200910648524203A936
:10203000A047012004B010BD00F0E8F90020F9E746
:10204000201C00200920001001480421014B1847E2
:10205000600E002079200010142310B501001888AC
:1020600004331B88984710BD162310B5010018884B
:1020700002331B88984710BDF8B54746CE4680B559
:102080000F1E19D01423994604330400002501269D
:1020900098464B461888434621681B88984701C4D8
:1020A000431E9841013540420640AF42F1D1300015
:1020B000C0BCB946B046F8BD0126F8E7114A936F97
:1020C0009B0813D210665166002905D0FFE7FFE791
:1020D000FFE7516F106F704704B5002801D0002052
:1020E000C04302F0C9FC002104BDC046F0B5146E27
:1020F000556E576F166FFFF7E5FF14665566576705
:102100001667F0BD000000D0132370B51D78012DB7
:1021100015D010DD1D48FFF7A7FF1D4C01008022E0
:10212000200000F0C3F8022D2DD01A48FFF794FFCD
:10213000194B186070BD194B154CA364F5E7174B8C
:10214000134C23606360A360E36023616361A36158
:10215000E36123626362A362E36223636363A36355
:10216000E36323646364A364E36423656365A36535
:10217000E36523666366A366E36623676367A36715
:10218000E367A364D1E7054BA364CEE753440000A3
:10219000281000204C3300004C1C0020A12100100E
:1021A00007B5604601880A0A0230DF2AFAD1C9B2AF
:1021B000820804D3028840880004104300E00068CD
:1021C000014A5050039007BD28100020514343435B
:1021D000C9188C46110C83B24B4310B4040C6143F4
:1021E00092B280B2504362431C041B0C001910BC15
:1021F00059411304120CC01851416144704700004A
:10220000132310B512481C78FFF72EFF0100012C94
:102210000AD003DD80220F4800F048F80E48FFF78F
:102220001BFF0E4B186010BD0A4C5422200000F01A
:102230003DF80B4B6365A365E36523666366A366A0
:10224000E36623676367A367E3672362E361E5E708
:1022500053460000281100204C3300004C1C002085
:102260006522001007B5604601880A0A0230DF2A9D
:10227000FAD1C9B2820804D302884088000410430E
:1022800000E00068014A5050039007BD281100206B
:1022900001480421014B1847700E002079200010DE
:1022A000014B1B6818470000700E0020014B5B6853
:1022B00018470000700E0020F0B546464F46D6463F
:1022C000C0B5437D80460E001700002B4BD0002A7E
:1022D00032DD274B01259A464B1E002400209946EB
:1022E00007E0335D0A2B2CD02B0001340135BB42B3
:1022F00013DA002CF5D133780A2BF5D143461B7D38
:10230000002BF1D14346504602211B689847280014
:102310002B0001340135BB42EBDB874204DD434631
:10232000391A1B6830189847F619013E33780D3B6F
:102330005A42534142461375E0BCBA46B146A846DC
:10234000F0BD4B461B5D0D2BCED0A042DADA4346E2
:10235000211A1B68301898474346504602211B68D3
:1023600098472800D4E70368110030009847E3E756
:10237000244C0010F0B5CE46474680B583B06B467E
:102380000600DD1D2870FEF7C7FF00231A4A121849
:102390004B41802109068B4202D30122174B524246
:1023A00017490800884602F087FB164B81461C68D7
:1023B000002C14D0144F02E02469002C0FD02368A5
:1023C000002BF9D03B68002B01D0A342F4D12000B0
:1023D00001222900FFF770FF2469002CEFD14B4642
:1023E000002B05D1300003B0C0BCB946B046F0BDEB
:1023F000404602F031FBF5E740420F00FFFFFF7F50
:10240000D80E0020141800201C180020F0B5DE465D
:1024100057464E464546E0B585B0070002F0E2FA61
:102420000600FEF779FF00232B4A12184B4180214A
:1024300009068B4202D30122284B52422849080048
:102440008B4602F039FB274B01901C689A46002C02
:102450003BD0254B984602ABDD1D0A23994602E08E
:102460002469002C17D02368002BF9D043461B6841
:10247000002B01D0A342F3D1200032003900FFF736
:102480001BFF4B462000012229002B70FFF714FF91
:102490002469002CE7D1019B002B18D153461C68FE
:1024A000002C06D06368002B0BD098472469002CC1
:1024B000F8D1300005B0F0BCBB46B246A946A046F4
:1024C000F0BD2469002CEDD1F3E70028F1D0584687
:1024D00002F0C2FAE2E7C04640420F00FFFFFF7F72
:1024E000D80E0020141800201C1800200A4A136877
:1024F000002B05D10CE01A001B691032002B07D00D
:102500009842F8D1002902D1036913600161704734
:102510000029FCD01060FAE71418002010B500F074
:10252000D1F800F0CBFA012010BDC046F0B500296B
:1025300015DD0E4B0D271A680D4B0E4CD3185D425E
:102540006B41451820215B001E5F0478A64207D02E
:1025500093691942FCD101301460A842F5D1F0BD55
:1025600093691942FCD11760F2E7C046701C002045
:102570000080FCBF6C1C002030B504000D1E30DD57
:1025800000201021204B013C1A689369194217D191
:10259000013093691942FCD1136823548542F4D168
:1025A0001A4B1B68002B09D0502338219363536BBF
:1025B0003432194080235B011343196028000FE077
:1025C000124B1B68002B09D0502338219363536BA7
:1025D0003432194080235B011A431160002810D067
:1025E00030BD0A4B1B68002B0BD050223821064B04
:1025F0001B689A635A6B3433114080225201134393
:10260000196003204042EBE7701C0020981700205F
:10261000064B10B51B68002B06D00021044A126837
:102620009163044A1068984710BDC046981700206F
:10263000701C0020A01700201D4BF0B51A68C6467C
:1026400098461C4B0E00D31859424B411A4F143375
:102650001C00050000B53B68002807D0002B11D0F6
:10266000164B3D601E6080BCB846F0BD002BF7D015
:10267000906300212000FDF763FF20001049FEF762
:10268000BBF8EDE720000E49FDF792FF0121200085
:10269000FDF756FF4346502238211B689A635A6B58
:1026A000343311408022520113431960D8E7C046E9
:1026B000701C00200080FCBF98170020A01700208D
:1026C000112600100C4B10B51B780C4B0C4C1B78D2
:1026D0000C4B022100202360FDF758FE022101204F
:1026E000FDF754FEE12120684902FFF709F90121B5
:1026F0000548FFF7FBFE10BD784E0010744E001029
:10270000701C002000400340800E00207047C0462F
:102710000022014B1A7070478A1C00204B79002060
:10272000FF2B0BD18B79002B08D1CB79012B05D155
:10273000082A03D9024B8A7809301A707047C046BC
:102740008A1C00200120704770B5012901D00120AA
:1027500070BD13495379107909781B020343002097
:102760009942F5D15378012B08D0022BF0D10020EB
:1027700064220021FFF74AFB0120E9E79478D27830
:10278000050012021443D20502D5620A93401D00CF
:102790000448FFF761FC7F2103002140280098478F
:1027A0008A1C002055420000012303700048704736
:1027B000684C00104B780A781B0213438A7810B5D6
:1027C00012041A43CB781B0613439622D20093427D
:1027D00000D010BD0348FFF73FFC002103000800B4
:1027E0009847C04655420000024B1860024B1960E2
:1027F0007047C0469C170020A417002010B5024B5C
:102800001878FDF7AFFE10BD8B1C0020114B70B582
:102810001A68002A1AD0EFF3108172B610680028E7
:10282000FCD0BFF35F8F00200B4A596010701B680B
:10283000BFF35F8F186081F3108800240025074BD9
:102840001878FDF78FFE2900200070BDFA240025BE
:10285000A400F4E72C1C00208C1C00208B1C002002
:1028600070B5040000200E0001F016FB002836D0E1
:10287000002001F029FB002831D0FEF74DFD002398
:10288000184A12184B41802109068B4216D2164D68
:10289000280002F011F9002821D0002001F0FCFAF4
:1028A00000280FD101200021404200F0C3FC032486
:1028B0006442280002F0D0F8200070BD01220B4BCA
:1028C0005242E4E7002001F0FFFA0028EAD021009C
:1028D0003200002001F004FB041EEAD1E7E70324E4
:1028E0006442E9E740420F00541C0020FFFFFF7FD5
:1028F000F8B5DE46574680B505000C00FEF70CFD26
:102900000023374A12184B41802109068B4202D31B
:102910000122344B5242344908008A4602F0CCF876
:10292000002803D1C0BCBB46B246F8BD002001F070
:10293000B3FA00284AD00026002C43DD2B4B9B46DF
:1029400014E0A919002001F03FFB0700012000213D
:10295000404200F06FFC002001F0FAFAFEF7DCFCC8
:10296000224BF61918605960B4422BDD002001F0AB
:1029700045FBA71B0200B84200DD3A00002AE0D167
:1029800001200021404200F055FC002001F0E0FA57
:10299000002001F081FA002814D0002001F02EFB65
:1029A0000028E1D1FEF7B8FC5B460F001A685B68AF
:1029B000002184460E4812184B419F4202D8D3D1C1
:1029C0009445D1D9504602F047F8ABE700200021EA
:1029D000064B18605960504602F03EF8A2E7C04628
:1029E00040420F00FFFFFF7F541C002020100020FA
:1029F00020A1070010B5244C84B00021200002F073
:102A000043F800281CD1214B1A68002A16D0EFF396
:102A1000108172B610680028FCD0BFF35F8F0124CC
:102A20001B48596002781B68D2B20470BFF35F8FF5
:102A30000020186081F31088002A0AD004B010BD6D
:102A400001200021404200F0F5FB200002F004F8D4
:102A5000F4E7FEF739FA0400FEF75EFCFA220023E1
:102A6000920012184B41802109068B4202D30122A9
:102A7000084B524201210291002101910649200098
:102A80000091FEF725FAD9E7541C00202C1C0020E9
:102A90008C1C0020FFFFFF7F0D280010054B10B598
:102AA0001868002804D0044B0022196801F064F86B
:102AB00010BDC0469C170020A4170020D02310B5DD
:102AC0001B0684B01C68FEF7FFF9FEF7C5FAA042AA
:102AD00002D0002004B010BD274B1B7801F070FC21
:102AE0002648FDF7F5FF0120FDF7D4FFFF23244C16
:102AF000244920701840FDF75BFD20780121FDF787
:102B00001FFD0520FDF736FD002827D1FEF7DCF973
:102B10000400FEF701FCFA220023920012184B4138
:102B2000802109068B4202D30122174B5242012118
:102B3000029100210191154920000091FEF7C8F98A
:102B40000822040000211248FFF7AAFB002CC0DB7A
:102B500010480121FFF7CAFC0120BBE700220E4903
:102B60000520FDF74FFDFDF7CDFC094B01001800D6
:102B7000FDF7D8FFECE7C0467C4E0010541C002047
:102B80008B1C0020F5290010FFFFFF7F0D2800108F
:102B90002C1C0020980E0020FD27001000487047D4
:102BA000384D001000487047E44C001010B5040088
:102BB00017480378002B20D0002C06D1154B16485F
:102BC0004380063BFF3B038010BD052C19D8134BF7
:102BD000A400E0581249002304E001330A800231C6
:102BE000132B10D0C25C002AF7D1C0220133DBB214
:102BF0005B00920008481343E5E7112100F01AF842
:102C0000DAE70020E0E7CA2303489B00DBE7C04681
:102C1000741C002009040000EC170020CC4C0010AC
:102C2000EE17002010B5024800F0D8F810BDC046DD
:102C3000441C002030B54B1E012900D1A7E0664A94
:102C400011780D112C0030349F2900D9A2E00470B6
:102C5000012B00D1BEE00F21147821400C0030344C
:102C6000092900D998E04470022B00D1B2E05478D1
:102C70002511290030319F2C00D990E08170032B61
:102C800000D1A7E00F2121400C003034092900D9E0
:102C900087E0C470042B00D19CE0947825112900B2
:102CA00030319F2C00D97FE00171052B00D191E0DC
:102CB0000F2121400C003034092900D976E04471FD
:102CC000062B00D186E0D4782511290030319F2CC5
:102CD00000D96EE08171072B00D17BE00F212140EC
:102CE0000C003034092966D8C471082B00D171E07A
:102CF00014792511290030319F2C5FD80172092BDE
:102D000068D00F2121400C003034092958D8447272
:102D10000A2B5FD054792511290030319F2C52D8CD
:102D200081720B2B56D00F2121400C003034092921
:102D30004BD8C4720C2B4DD0947925112900303119
:102D40009F2C00D9073101730D2B43D00F21214057
:102D50000C003034092901D937310C0044730E2B93
:102D600038D0D1790C11220030329F2900D9073296
:102D700082730F2B2ED00F220A4011003731092AFF
:102D800001D830321100C173102B23D01030002332
:102D9000037030BD07345AE737310C0063E7073161
:102DA0006CE737310C0074E707317DE737310C00F1
:102DB00085E707318EE737310C0095E707319DE74E
:102DC00037310C00A3E70731AAE737310C00C47292
:102DD0000C2BB1D1C018DAE7441C002030B5002517
:102DE00089B004000922002101A80095FFF758FAD4
:102DF0000922002105A80495FFF752FA4B236A46E1
:102E00006846137004A90D2201F01EFE1521082248
:102E100020006944FFF74AFA09B030BD10B501211E
:102E20000520FDF78DFB10BD10B5002200210248E2
:102E300000F05AF910BDC046401800208022024B15
:102E40005202DA647047C04600201150F0B5C64601
:102E500000B5060000F022F90C231B4DFF22AB67E2
:102E600005201A49FDF7CEFB40239846184C402216
:102E700000212000FFF714FA434601272383212174
:102E80000023144A6770A260136063545F31618449
:102E900041462187053963540F4A10496360E26057
:102EA000A1620B606362E26201F0DEFD80239B059C
:102EB0002F64EB6490230A4A3000EA50FFF7BEFF0C
:102EC00080BCB846F0BDC046000011509D040020F3
:102ED0002018002084001050000110508000105075
:102EE00010D001000B785B0602D14B78052B00D087
:102EF00070478A78014B1A60FAE7C046000011500B
:102F0000F0B5C64600B5CC7888780A794B797F2130
:102F1000A40701401B02C50913434F00A20F140070
:102F2000324E7A195201B2189070012068405070E8
:102F300000205B055B0DD0701383D4768046CA00F9
:102F4000012D33D02A488446880162448446B44423
:102F50006046826040461060002933D0254AC9008F
:102F600090466246414451603F223F339343022CD6
:102F700000D15B0020487A1901685201B218D16073
:102F80001E4ACB18036051405A40802388465B019B
:102F90009A4228D84346A4061C4380237F197F0108
:102FA000F61972681B062343136011E01448844627
:102FB000880162448446B4446046826240461060A0
:102FC000002909D100236D0175196B600D4BEB6071
:102FD000012080BCB846F0BD084AC9009046624650
:102FE00041445162C0E7FFF709F8D3E720180020F9
:102FF0008400105004001050281C002000001050C5
:10300000800010500001105010B501F02DFD10BDD2
:1030100010B57F200C0020404000E4091100001989
:103020001A00034B4001C01800F05EF8012010BDEB
:10303000201800207F23180010B508400B420BD049
:10304000C90980224000074B401840010021C018E8
:10305000120101F049FD10BD0223034AC9095B1AA0
:103060009366EEE720180020002011507F22130005
:1030700010B50B400A4200D110BDC9095B005B18B6
:1030800004485B01C018002300220349C37001F00B
:103090002BFDF1E720180020FFF7FFFF80220D4BEA
:1030A000520410B51A600C4B0C491A6010008B6862
:1030B0009843FBD10A4C9C2200212000FFF7F0F836
:1030C0008022002152010748FFF7EAF809236367CD
:1030D00010BDC04600E0004000F0004000C00040CD
:1030E0000000115000001050002310B5C3820133BE
:1030F000828283760161040001F0D6FC002804D0AE
:1031000080219023074A8902D150200001F0E4FC7D
:10311000002802D00123237710BD200001F0D4FC49
:10312000FAE7C04600201150024B5878431E9841E0
:10313000C0B270476C150020024B18784007C00FD2
:103140007047C0466C150020034B1878FF38431EAB
:103150009841C0B27047C046D40E0020F0B5C646B4
:1031600000B52A4E05003378FF2B01D001203FE047
:10317000532200212648FFF793F8264C2000FDF744
:10318000A7FC254B1C60254C2000143CFDF7BCFC23
:10319000200001F0E3FB224B224F1C60224B98469B
:1031A000002B1DD03800FFF7FFFA204B18603B784A
:1031B00042460024002A15D01D4A904642469C42B1
:1031C00019D3904701343B78E4B2A342F6D22800E9
:1031D0003570FFF73BFE2800FFF720FE012007E0D7
:1031E0003B78E5E700F016FF3B78002BEFD000209E
:1031F00080BCB846F0BD0D4A630012681B19DB00A5
:10320000D318002BF3D01A68DBE7C046D40E002099
:103210006C15002024150020C0150020CC0E0020C5
:10322000C4150020851C0020A9270010441200208E
:1032300015400010F0B5DE4657464E464546E0B50F
:1032400091B001F0C3F8002800D115E1CA4BCB4E74
:103250000193CB4B0DAC0293CA4B9B4635686A6910
:10326000EFF3108172B61368002BFCD0BFF35F8FB1
:10327000A9612800210001F0B3F96A69AB69BFF3C5
:103280005F8F0021116083F31088002800D1F3E0E4
:103290006378082BE2D8019A9B00D3589F46636855
:1032A000002BDBD0A0689847D8E77F222179B44D66
:1032B0000A405300C809EB181B18180001273030CA
:1032C000C578BD43C570C5780337BD43C570002AB6
:1032D00000D1EEE0AC4ADB7C002A06D0AB4A127883
:1032E000934200D264E19B1ADBB2002B00D0C3E012
:1032F000A74DA36862792078A847AFE70122A04DC7
:1033000001212B78042013432B703323EA5C8A437A
:10331000EA54EA5C8243EA540133EA5C8A43EA54A1
:10332000EA5C8243EA54237800209A4600F026FDA6
:10333000602223791A40602A0DD0402A00D1BEE0D5
:10334000DB06DB0E012B00D13DE1022B00D1D3E0E7
:10335000002B00D1C2E020780021FFF76BFE802116
:103360002078FFF767FE79E7029B1B78DB0700D424
:1033700074E7884B002B00D170E700E000BF6DE7D9
:103380007F4D2B78DB0700D468E7834B002B00D1FF
:1033900064E728780007C00F00E000BF5EE72378ED
:1033A0007A4F794A984600253B78002A49D0B146A1
:1033B0003E005F463A009D4265D340469047013546
:1033C0003378EDB2AB42F5D24E46BB466C4D53223C
:1033D00000212800FEF764FF1022FF21E81CFEF701
:1033E0005FFF28002022FF211330FEF759FF2EE057
:1033F0002378664F644A984600253B78002A2FD0F0
:10340000B1463E005F463A00AB4247D8404690473F
:1034100001353378EDB2AB42F5D24E46BB46584D3E
:10342000532200212800FEF73BFF1022FF21E81C59
:10343000FEF736FF28002022FF211330FEF730FF71
:1034400015E0404600F024FE3B78002BBED000F093
:103450008BFC524B002B00D100E700E000BFFDE6E3
:10346000404600F015FE3B78002BD8D0444D00F0CC
:103470007BFC2379AB70F1E611B0F0BCBB46B246E1
:10348000A946A046F0BD464A6B0012685B19DB00F6
:10349000D318002B00D1AEE15A688EE7404A6B008A
:1034A00012685B19DB00D318002B00D1A6E15A6823
:1034B000ACE7A3686279207800F074FCCEE6394866
:1034C000002800D147E700F059FC012150460EAA20
:1034D00000E000BF002800D0C0E63CE7202A00D171
:1034E000A6E0002A00D036E76379092B00D932E73D
:1034F0002D4A9B00D3589F467023217A0B4200D05F
:1035000029E70F330B405B00CF09E818C019C07CD6
:10351000039384461C48002808D01C480078844542
:1035200000D2A8E06346181AC3B29C466046002841
:1035300000D09AE0002A00D059E11C4B98466379EC
:103540001A00994602239A43012A00D159E14B46B9
:10355000002B00D0FFE6039B0CAAEB18DB193033DD
:10356000DB7802329B07DB0F1380504602230EA943
:1035700000F0A4FB72E6C046AC4D0010C41500205C
:103580006C15002091400010A9270010851C002018
:103590008542001000000000000000000000000054
:1035A0004412002000000000D04D0010384E0010E2
:1035B000C04A58001268C318DB00D318002B00D192
:1035C0005AE71D6995E6237A0F2B00D9C3E6BA4A5C
:1035D000EB18DB78002A05D0B84A1278934265D3FD
:1035E0009B1ADBB2002B00D0B5E6B548B54D00F014
:1035F000C5FB01215046EB680EAA9847002800D071
:103600002CE66022150023791D401A4200D0A2E664
:1036100063790A3B012B00D99DE600F0AFFB63798B
:103620000A2B00D12FE150460EA900F031FB15E620
:10363000237A0F2B00D98EE69F4AEB18DB78002AFD
:1036400006D09E4A1278934200D2FDE09B1ADBB26C
:10365000002B00D07FE69A489A4D00F08FFB0121A5
:103660005046EB680EAA984734E7002A00D072E66D
:103670000023984663E763465B009846C44463466C
:10368000DB009C468B48006860448046002A00D1DD
:1036900055E7002800D15EE6C06800F06FFB4346A6
:1036A00001215046DB680EAA984713E7814A59006A
:1036B0001568CB18DB00ED18002D00D14BE6E8684B
:1036C00095E7E388012B00D045E608222B78504689
:1036D00093430EA92B7000F0DBFABFE50220297896
:1036E0000CAB9A1C8B068908DB0F01400B433BE7B0
:1036F000A37999466B78994507D06B78002B00D059
:103700004AE14B46002B00D0E8E04B4650460EA95C
:103710006B7000F0BDFAA1E56B780CAA0232137051
:10372000504601230EA900F0C9FA97E5E3881A0A6A
:10373000D8B20F2A00D90EE663499300CB589F46B2
:103740000EA800F021FB5046A179FFF76DFB022285
:103750002B7813432B7081E5E388012B00D0FAE529
:1037600008222B78504613430EA92B7000F090FAD4
:1037700074E5564B002B00D1EDE500E000BF021EC2
:1037800000D1E8E5D37891781B020B4350460EA98F
:1037900000F094FA9EE64E4B002B00D1DBE500E0F2
:1037A00000BF021E00D1D6E5504613780EA900F0E6
:1037B00085FA8FE62189FFF7F9F9021EF4D1CAE5EF
:1037C000022A00D15FE1434B002B00D1C3E500E0AA
:1037D00000BF0200002A00D1BDE5D3E7FFF7DEF904
:1037E000122302000EA9504600F068FA72E6354B2B
:1037F0003348984651E74E46BB4628E64E46BB4600
:1038000034E6E288002A09D14B46012B27D0039BDE
:10381000EB18DF193037FB789B073DD54346002B6B
:1038200000D11BE5D86800F0A9FA43460121DB6806
:103830000EAA50469847002000F0A0FA3423EB5C13
:10384000DB0700D50AE5EEE61A4A59001568CB18E1
:10385000DB00ED18002D00D17DE5E868FDE6039B57
:10386000EB18DF193037FB789B07D7D51A4B187840
:10387000FFF7FCFB0222FB7893434A46FB70FB7880
:103880009343FB70CAE70CAB9A1C504601230EA968
:10389000157000F013FAE1E40F4B1878FFF7CAFB3C
:1038A0000222FB7813430122FB70FB781343FB7069
:1038B000B4E7C04644120020A9270010851C002050
:1038C000A1410010384E0010F84D0010000000001B
:1038D0000000000000000000D40E0020581EC0B2FE
:1038E000FFF760F9002800D135E543780793022BF4
:1038F00000D030E50121C37907009A115B110A401D
:103900000B4052011B0113432A782F318A43134382
:103910002B70C37882781B021343C3180693664B3F
:10392000A8460593654B09370A934B46B1460B935E
:10393000069BBB4200D8AAE001227B7803920B2BA6
:1039400003D1FB7803933B78FF187B78042B21D1BC
:103950000025069BDB1B9BB20493059B1A780A9BF0
:10396000AB424DD0564B0893564B0993089B099E8A
:10397000AA427FD839005046049A984784460828BE
:1039800002D9049A824247D2059B01351A78EDB2DA
:10399000AA42EBD24E46DEE45046FFF735FBAB7849
:1039A000454F464A039300213B78002A1FD0464AE0
:1039B00004922A000D009046049A9D4250D350462E
:1039C000904701353B78EDB2AB42F5D245465322E4
:1039D00000212800FEF764FC1022FF213B48FEF77F
:1039E0005FFC2022FF213A48FEF75AFC05E05046D2
:1039F00000F04EFB3B78002BE9D0039BAB7080E6D8
:103A0000049E39003200504600F058FB84460828D6
:103A1000C0D98642BED32B4E039B012B44D000223B
:103A2000404609E0BB78D318DBB2C318D978FF2928
:103A3000B0D10132DD70D2B2039B9A42F2D1664618
:103A40002B00390080463200214800F045FDB44685
:103A5000059B67441B78AB4200D369E74E467AE486
:103A60001C4A6B0012685B19DB00D318002B19D0BD
:103A70005A68A4E71823174A6B431668F618002EF5
:103A800088D0B36876E7FFF78DF80200A2E60B9BBB
:103A90004E469946104B4546002B00D135E600E0D6
:103AA00000BF32E64546A8E7054BB2689A42B6D158
:103AB000079B0393B3E7C046851C0020A92700108D
:103AC000BD400010384E0010914000106F150020CE
:103AD0007F1500204412002000000000F8B5574672
:103AE0004E46DE4645460C00E0B516001F00002A93
:103AF0003CD01F4B00259A46702399461D4B9B4690
:103B000017E05B462000997800F0A8FC00281FD041
:103B100021004046FFF7F4F9002819D0A378DA090C
:103B2000012A1CD00A9A013513702378E418B54293
:103B30001CDA6378052B0BD1E3789B079B0FBB4204
:103B400006D153464A461B789846A3781A42D8D0E5
:103B50000020F0BCBB46B246A946A046F8BD0B9A71
:103B6000013513702378E418B542E2DB0120F0E759
:103B7000D40E00206C150020802310B51B0184B0EA
:103B800001930E4B02901C6803916269EFF310835E
:103B900072B611680029FCD0BFF35F8FA3612000CB
:103BA00001A900F0DFFD6269A369BFF35F8F002107
:103BB000116083F3108804B010BDC046C415002006
:103BC000702270B5094B0C001D788B781A4201D019
:103BD000002070BD064B2000997800F03FFC0028C3
:103BE000F6D021002800FFF78BF9F2E7D40E002071
:103BF0006C1500200B007F2010B51840DB09333313
:103C00004000044AC018044B1168C01800F0E2FBE1
:103C100010BDC046C01500206C1500200B007F2091
:103C200010B51840DB0933334000044AC018044B78
:103C30001168C01800F0F6FB10BDC046C01500208A
:103C40006C15002070B57F240F480C4064000419E7
:103C5000CD0964193034E078C00701D5002070BD6B
:103C60000126E578094835430078E570FFF7D0F97B
:103C70000028F4D10122E3789343E370E378033220
:103C80009343E370EAE7C0466C150020D40E002091
:103C900070B5094C0600082220000D00FEF706FB57
:103CA00000238021E360A3602B7830009943002239
:103CB0000023FFF7C7FF70BD10150020F8B5CE46F2
:103CC00047469046264E80B58146082230000D00BA
:103CD0001F00FEF7EBFA4346B3600023F381EC7953
:103CE000AB7924021C43231CBC4200D93B1C9FB26D
:103CF000B381002C0ED0002F18D04346002B2CD0BF
:103D00003B1C402F1BD89FB233787F2B1CD800213F
:103D1000144A0FE080212B78002299434846002363
:103D2000FFF790FFC0BCB946B046F8BD7F23002224
:103D3000317899433B004846FFF784FFF2E7402380
:103D40009FB233787F2BE2D9064C3A0041462000DF
:103D5000FEF7ACFA80212200ECE70020E2E7C04643
:103D6000101500202C15002010B514220021024847
:103D7000FEF796FA10BDC04610150020014B1861E1
:103D80007047C0461015002010B5054C01000822F0
:103D90002000FEF78BFA0023A360E36010BDC0464D
:103DA0001015002070B5394C1D0023780600DA0983
:103DB000C9098A4213D00020002D00D070BD344BB9
:103DC000002B03D021003000FFF78CF82369002B73
:103DD00003D022000321300098470120EEE77F2B1B
:103DE00006D8A068002834D02A002A49FEF75EFAD7
:103DF000E289A1685219E38892B24919E281A1606F
:103E0000934214D03F2D12D9A389981A051C80B271
:103E100040282AD82078ADB27F2828D800219A429D
:103E200032D01C4A2B003000FFF70CFFC6E7236995
:103E3000002B05D0220002213000984700280AD02C
:103E4000802123780022994330000023FFF7FAFEF7
:103E5000B4E70020B2E700213000FFF7EBF83000B4
:103E60008021FFF7E7F80120A8E74025D2E79A4232
:103E700007D0084C2A002000FEF718FA8021220003
:103E8000D0E780210022CDE70022CBE710150020EB
:103E9000E52E00102C15002010B50400FFF744F9A2
:103EA000002801D1002010BDFFF746F90028F9D104
:103EB000B22292006243034B01309B181B791840D9
:103EC000F1E7C04648120020B2239B00434310B5DF
:103ED0000248181800F050FB10BDC04658120020D0
:103EE000F0B5B225AD0045432C00C646174F10343F
:103EF000E41900B5200092B200F0C0FB06002000DB
:103F000000F058FB3F2803D8300080BCB846F0BD15
:103F10007B190020D9789846FFF76CFE0028F3D073
:103F2000200000F047FB3F280AD992239B00EA18A3
:103F30004346D219D97800204023FFF783FEE3E7F8
:103F400043460020D978FFF769FEDDE748120020DC
:103F5000F8B50400FFF7E8F8002801D10020F8BD0B
:103F6000FFF7EAF80028F9D1B2239B005C43250053
:103F7000144E2435AD19280000F0FEFA0028EDD0CB
:103F800037190020B978FFF735FE0028E6D0A223C4
:103F90009B009C466444A41921002800402200F0A4
:103FA0006DFBB978051E08D0030022000020FFF742
:103FB00049FE0028D2D02800D1E70020FFF72EFECE
:103FC000CCE7C0464812002070B5B224A400444398
:103FD000094B0500E418200092B200F007FC06002F
:103FE000200000F0C9FA3F2801D8300070BD280039
:103FF000FFF7AEFFF9E7C0466C120020B2239B002A
:10400000434310B50248181800F0D4FA10BDC0465A
:104010006C120020B222F0B51B4C83B000212000AE
:104020009200FEF73DF9FF236371184B80260025AF
:10403000E38001270823210020007600237332004B
:10404000278138310095073B103000F05FFA2100DE
:10405000200039313200FF3101230097243000F075
:1040600055FA8E239B00E6183000FCF731FD9023B3
:104070009B002662E6183000E561FCF729FD266307
:10408000656303B0F0BDC0464812002000C2FFFFC8
:1040900010B5094C052200212000FEF701F920008F
:1040A0002434103000F05AFC200000F057FC0121AD
:1040B000200000F073FC10BD48120020F0B54B79D1
:1040C000060083B0022B02D18B79022B03D000258E
:1040D000280003B0F0BD2F4FBB78002BF7D18B78B1
:1040E00009253B700C780C196378242B0BD1082A16
:1040F00002D81FE0AA421DD32378E4185D19637823
:10410000ADB2242BF6D0052B31D0042B12D163791C
:104110000A2B0FD1204B2778019301330093022201
:1041200002233000E119FFF7D9FC0028CFD00E356B
:10413000ED19ADB2194C200000F03CFA3F28C7D968
:104140002600103E0020F178FFF754FD0028BFD074
:10415000200000F02FFA3F2817D98E239B00E21889
:10416000F93BF178FF3B0020FFF76CFDB0E7210041
:104170003000FFF725FD0028A9D0A3787B702378B5
:104180005D19E4186378ADB2BFE7F1780020FFF75E
:1041900045FD9DE7481200204A12002058120020D9
:1041A000F8B5602314001278050013400020202B7E
:1041B00012D12F4A6379277916781B023B439E421E
:1041C0000AD16378222B27D007D8202B17D0212B98
:1041D00002D101293DD00120F8BD232BFCD10129BA
:1041E0003FD00329F7D1234B002BF4D0E178A378FB
:1041F00009020020194300E000BF0120ECE701297B
:1042000027D00329E7D11C4B002BE4D00020911DBF
:10421000FEF7D0FA0120DFE7012922D00329DAD105
:1042200001252E00A378E478023924021C4314717E
:10423000264024321000714000F0B0FB0F4B002BE1
:10424000C9D06208002031002A4000E000BF0120F0
:10425000C2E7072321002800094AFFF72FFD0120AC
:10426000BAE721002800FFF713FD0120B4E7C0469C
:104270004812002000000000B527001000000000D8
:104280004E120020F8B545465746DE464E46E0B58C
:10429000464D1F00EA7880460C00AB788A4246D033
:1042A00000208B421AD0F0BCBB46B246A946A046BD
:1042B000F8BD3F4B002B04D0484600F073F90028AE
:1042C0006CD0484600F076F93F2807D94E46103E9C
:1042D0000020F178FFF78EFC002851D1AB78A34283
:1042E00001D00120DFE7334B002B02D0002000E09B
:1042F00000BF0020FFF72CFE0028F2D12E4C20003A
:1043000000F03AF90028ECD1002FEAD0BF06E8D13E
:10431000243C4046A178FFF76DFC0028E1D0002343
:1043200000224046A178FFF78DFC0120BBE79223D5
:104330009B00EE1810239B46AB4431005846BAB29E
:1043400000F054FA1D4BD946002BB2D06B79FF2BED
:10435000AFD0002FADD0F219924603E00136B2453E
:10436000A7D06B7932789A42F8D1484600F01AF912
:104370000028F3D14B46103B597900E000BFEDE730
:10438000484600F017F93F280BD98E2292004023AF
:10439000F1784A440020FFF755FC9FE7FEF77EFBCB
:1043A0008FE7F1780020FFF739FC97E748120020EB
:1043B0009D2A0010000000006C1200200000000088
:1043C00010B50020FEF7CAFE10BDC04610B5FEF7BE
:1043D000BBFE10BD037870B5DB0704000E00DD0FD7
:1043E000002B17D103785B0701D5280070BD012190
:1043F0003000494200F050FB2378DB07DD0F002B33
:104400000AD123785B0708D40422237801251343BB
:10441000237002E00025E8E70025300000F01CFBD7
:10442000E3E7C04670B50C000121060049422000B8
:1044300000F032FB33785B07DD0F002B04DB20003C
:1044400000F00AFB280070BD3378DB0704D4042297
:10445000337893433370F2E70025F0E7437902792C
:104460001B0213435B055A0DC3789B079B0F022B5E
:1044700005D0032B15D00020012B08D0704702294E
:104480001ED00020402393424041C0B2F6E70239DB
:104490004B4259410D4B9C46614491424041C0B250
:1044A000ECE702394B1E9941094B494219408023E0
:1044B000DB009C460020614491424041C0B2DDE7F0
:1044C000044BD01843425841C0B2D7E7FF03000065
:1044D00040FCFFFF00FEFFFF8A1870B5914207D233
:1044E0007F264C78052C04D00C7809198A42F8D81C
:1044F00070BD34008D782C4064000419ED096355BB
:104500000C7809198A42ECD8F2E7C046F0B5C646E5
:1045100000B5040006A805788020884617001E0014
:104520000002824226D8E068002803D001214942D7
:1045300000F0B2FA2069002803D00121494200F0BE
:10454000ABFA4346236073045B0CED031D43002369
:10455000E0686381A780E5802381002801D000F016
:104560007BFA2069002801D000F076FA012080BC97
:10457000B846F0BD0020FAE710B504894189828869
:10458000A3B288B28C4207D31B1A9BB2101C9A426A
:1045900000D9181C80B210BD5100091A5B189BB2DB
:1045A000F4E7C04603894089181A43425841C0B213
:1045B0007047C04610B5048941898288A3B288B289
:1045C0008C4207D31B1A9BB200209A4201D9D21AFF
:1045D00090B210BD5100091A5B189BB2F4E7C046B7
:1045E00070B5040000690E00002803D00121494283
:1045F00000F052FA25896089A288A9B283B2854267
:104600002BD3CD1AADB2002D2DD0AA4208D29142A3
:104610002FD3891A8BB263819A4203D89B1A9BB21B
:104620009A42FBD9E28821685204520C534330006D
:10463000C918FDF73BFE63890125591C89B2A28880
:104640008B4212D95200891A89B2206961810028EF
:1046500001D000F001FA280070BD5500ED1A4D1987
:10466000ADB2002DD1D1618989B252009142ECDB0B
:10467000E9E789188BB26381CEE7C046F0B54646BC
:104680004F46D646C0B506000069894690460028C8
:1046900003D00121494200F0FFF931897289B588C0
:1046A0008BB294B2914254D31F1BBFB2002F4AD099
:1046B000BD4205D2AB4251D25B199CB22F0074812E
:1046C0004346B8453DD89FB2A54203D8641BA4B267
:1046D000A542FBD9F28831685204520C90466243DD
:1046E0002B1B9BB2891842469F4225D953439BB24C
:1046F0001A0048469A46FDF7D9FD434648467D1BB9
:1047000064195C4331685044A2B2FDF7CFFD718952
:10471000B588CB199BB26A00994216D99B1A9BB2F5
:1047200030697381002801D000F096F93800E0BCB0
:10473000BA46B146A846F0BD48467A43FDF7B6FDF5
:10474000E5E73B1CBFE773899BB26A009342E7DB56
:10475000E4E76F003F1BDF19BFB2A7E75B1B9CB20A
:10476000ACE7C046F8B50400C0680E00002803D0CE
:104770000121494200F090F9258920896189A288A8
:10478000ADB283B28FB2884228D3DB1B9BB29A4270
:1047900009D8E779FF0906D1E068002801D000F0C8
:1047A0005BF93800F8BD2B00954203D39B1A9BB2EE
:1047B0009342FBD2E28820685204520C53433100EA
:1047C000C018FDF773FDA2886B1C9BB252009D427E
:1047D00009D99B1A9BB201272381DDE75100C91B30
:1047E0005B189BB2D3E79342F5DBF2E7F0B54546A1
:1047F000DE4657464E46E0B588460500140083B0B5
:10480000002A6FD0C068002803D00121494200F07F
:1048100043F92E89EB796A89B6B292B2DB0940D1AD
:10482000AB88964267D259008A1AB21892B2002712
:10483000934230D99A1A171C92B2A24200D9271C6F
:10484000EA88BFB25204520C9146F21992B29246D3
:10485000FA1A92B293463400B34203D8E41AA4B2CF
:104860009C42FBD24A46624328681B1B9BB28018BD
:104870004A46BB4253D341467A43FDF717FDAB8806
:104880005B00B24501D39A4503DB5246D31A9BB273
:104890009A4653462B81E868002824D000F0DCF8C3
:1048A00021E0AF88BC4229D296424AD3B31A9BB2C8
:1048B00079001B198B4208DBD3199BB21E1BB6B2C1
:1048C0009A46B24242D9761AB6B2EB885B045B0CC8
:1048D0009946A3199BB29A46E31B9BB29B463B00A9
:1048E0002700B8E70027380003B0F0BCBB46B2464B
:1048F000A946A046F0BDB21A92B298E7002FCAD0DE
:10490000EB88E41B5B045B0C5C4399461600D319EF
:1049100000229BB29A4693463B00A0449BE7534338
:1049200099B20A0001915C444146FDF7BFFC2200A8
:104930004B465A430199286892B24144FDF7B6FCB0
:104940009DE779008B1AF3189BB2B2E7B142BADD4A
:10495000EB885B045B0C9946BEE7C04610B50400CB
:10496000C068002803D00121494200F095F8206971
:10497000002803D00121494200F08EF80023E068AE
:1049800063812381002801D000F066F820690028A7
:1049900001D000F061F8012010BDC04670B50400E0
:1049A000C0680D00002803D00121494200F074F8CE
:1049B0002069002803D00121494200F06DF87F21D1
:1049C000E379ED011940E0682943E171002801D045
:1049D00000F042F82069002801D000F03DF80120E5
:1049E00070BDC04610B583070AD00300032102E062
:1049F00001330B4205D01A78002AF9D1181A10BDDC
:104A0000030019680C4A0D4C8A188A4322420FD1C0
:104A10005968094A04338A188A43224208D15968DE
:104A2000054A04338A188A432242F1D000E0013358
:104A30001A78002AFBD1E1E7FFFEFEFE808080802D
:104A4000F8B5C0460000000001B40248844601BC2D
:104A5000604700BFC902002001B40248844601BC7F
:104A6000604700BF2D02002001B40248844601BC0B
:104A7000604700BF8903002001B40248844601BC9E
:104A8000604700BF750D002001B40248844601BC98
:104A9000604700BFC100002001B40248844601BC49
:104AA000604700BF9D01002001B40248844601BC5C
:104AB000604700BFAD09002001B40248844601BC34
:104AC000604700BF0101002001B40248844601BCD8
:104AD000604700BF490B002001B40248844601BC76
:104AE000604700BFD509002001B40248844601BCDC
:084AF000604700BFF10A00203D
:104AF80048656C6C6F20576F726C640A0000000088
:104B08005468697320697320612074657374206226
:104B1800696E6172792E00004F6E2D626F6172644A
:104B2800204C45440000000006005250197CA0B6F5
:104B3800084B00100900525000000002204B0010E2
:104B48004E6F207370696E6C6F636B732061726552
:104B580020617661696C61626C6500004E6F20753A
:104B680073657220495251732061726520617661C4
:104B7800696C61626C650000486172647761726596
:104B880020616C61726D20256420616C72656164BE
:104B98007920636C61696D65640000000A2A2A2A1D
:104BA8002050414E4943202A2A2A0A000A000000C0
:104BB80048617264206173736572740052656C6534
:104BC80061736500626F6F74325F773235713038A8
:104BD80030000000312E352E310000007069636FFF
:104BE8000000000074657374000000004E6F7620AA
:104BF800323920323032330006005250D3F0754239
:104C0800C44B001006005250E182887FCC4B001044
:104C180006005250BBFF3CB6E44B00100D0A0000E2
:104C28005541525420737464696E000055415254C2
:104C3800207374646F757400554152542073746402
:104C4800696E202F207374646F75740006005250CB
:104C580053B4F4A1404C00100800525092000000D8
:104C68000D270010112700101D27001049270010DC
:104C780045270010000000005553422073746469F2
:104C88006E202F207374646F7574000006005250F4
:104C980053B4F4A1804C0010526173706265727253
:104CA80079205069000000005069636F000000001F
:104CB800426F61726420434443000000526573658B
:104CC8007400000000000000A04C0010B04C001060
:104CD800741C0020B84C0010C44C00100902540089
:104CE800030100807D080B00020202000009040095
:104CF800000102020004052400200105240100012E
:104D08000424020205240600010705810308001097
:104D180009040100020A0000000705020240000021
:104D2800070582024000000904020000FF00010597
:104D380012010002EF0201408A2E0A00000101025E
:104D480003010000556E68616E646C656420495209
:104D58005120307825780A00657020256420257355
:104D68002077617320616C72656164792061766176
:104D7800696C61626C65000043616E277420636F23
:104D88006E74696E75652078666572206F6E20692D
:104D98006E616374697665206570202564202573CB
:104DA800000000005C320010F03300109E33001049
:104DB8005C3200108033001068330010FC320010A1
:104DC800AA3200109E320010DC360010C2360010E5
:104DD8005633001058370010563300104037001073
:104DE8002C3700105633001018370010F03600101A
:104DF80056330010DC370010C0370010B4370010ED
:104E0800563300105633001096370010C037001084
:104E18005633001056330010563300105633001026
:104E280056330010563300105633001072370010F6
:104E38001540001091400010BD400010A141001025
:084E480085420010000000008B
:104E50003C4B0010304B0010004C00100C4C00106C
:104E600088020010184C001094020010A0020010DC
:104E7000AC020010604C0010544C0010944C001018
:104E800003000068EFF3108C72B60268002AFCD0B1
:104E9000BFF35F8F04229A56002A04DB002900D05A
:104EA0000A60002004E0D0220120120612681A7164
:104EB0001B68BFF35F8F00221A608CF31088704765
:104EC000F0B5C646150000B504001E000268EFF3F9
:104ED000108172B61368002BFCD0BFF35F8F0423E0
:104EE000E356002B2DDB2268BFF35F8F002010609C
:104EF00081F31088D0221206127852B290469A425C
:104F000003D1002080BCB846F0BD00270BE0236829
:104F1000BFF35F8F1F6081F310882800310000F01D
:104F20002BFE0028EDD12268EFF3108172B61368D2
:104F3000002BFCD0BFF35F8F23797F2BE7D943464B
:104F400002E0D0231B061B6823712368BFF35F8F29
:104F500000221A6081F310880120D3E7F0B5C6461D
:104F600000B50D00040000F017FEFA2206000F0045
:104F7000002328000021920000F006FE802336184E
:104F80004F411B069F4202D30126174F7642D02382
:104F90001B061B68002598460BE02368BFF35F8F54
:104FA0001D6081F310883000390000F0E5FD002815
:104FB00018D12268EFF3108172B61368002BFCD071
:104FC000BFF35F8F23797F2BE7D943462371236893
:104FD000BFF35F8F00221A6081F31088012080BC2C
:104FE000B846F0BD0020FAE7FFFFFF7F0268EFF34D
:104FF000108172B61368002BFCD0BFF35F8FFF23C4
:1050000003710368BFF35F8F00221A6081F3108879
:1050100040BF704710B5084C2378002B0AD180237D
:10502000064807495B051A68C25004338B42FAD11F
:105030000123237010BDC046871C00209816001065
:105040000001001010B5014B984710BD99160020C3
:10505000034B1A68C0239B009343024A13607047B6
:105060000C8001400C900140054B1A6880239B0086
:105070005340C02292001340024A13607047C0465A
:105080000C8001400C9001401423F0B5D6464F46E9
:1050900046469A46814618880433C0B598460E00A5
:1050A0001B88264914009847534607001888434632
:1050B00023491B88984753460500188843462149D1
:1050C0001B8898478046FFF7A5FFB847A847FFF71A
:1050D000CBFF221E20D0C02108270220490511E065
:1050E000002C14D0131B0D2B20D9002D0AD0230027
:1050F000002A05D00B6E013A3370130001362343AA
:10510000002B09D03D008B6A1D401842E8D1002DCC
:10511000EDD123001343F5D1FFF79AFFC047FFF706
:1051200091FFE0BCBA46B146A846F0BD4B461B789D
:10513000013C0B6601239C46E144E8E74946000038
:1051400045580000464300000022154B10B59A60F8
:10515000DA601A615A619A61DA611A625A629A6275
:10516000DA621A635A639A63DA631A645A649A6455
:10517000DA641A655A659A65DA651A665A669A6635
:10518000DA661A675A679A67DA67F0329200002186
:10519000044800F0E1FC044B044A1A6010BDC0460C
:1051A0000000105060180020281C002080011050C2
:1051B000F0B55746DE464E464546E0B5244B87B02F
:1051C0009F6D002F23D0234B00249946012398463E
:1051D000214B01269A4604E001347600E4B2202CEB
:1051E00015D03E42F8D04B469E65434665086D009B
:1051F000A343ED186D015544280000F0BBFB0028C7
:105200000CD10134B743E4B27600002FE7D107B0E8
:10521000F0BCBB46B246A946A046F0BDAB7802A89A
:105220009B46EB8A062200210630019300F094FC95
:10523000E023594602AADB009380019B117203A868
:105240000121059300F0BEFB280000F02BFBD8E7FE
:105250000000115000301150201800209823C84A37
:10526000F0B5D55880232C009B02102685B01C4039
:105270001D427AD0C34BC44C9A6AC44B00261A60B4
:105280003B23E35C022B00D1DFE07B23E35C022BBA
:1052900000D1B9E1BB23E35C022B00D1A9E1FB23E0
:1052A000E35C022B00D199E13C23FF33E35C022B4A
:1052B00000D158E17C23FF33E35C022B00D145E1B0
:1052C000BC23FF33E35C022B00D132E1FC23FF332C
:1052D000E35C022B00D11FE1AD4BE35C022B00D15C
:1052E0000EE1AC4BE35C022B00D1FDE0AA4BE35C8A
:1052F000022B00D1ECE0A94BE35C022B00D1DBE0F8
:10530000A74BE35C022B00D1CAE0A64BE35C022B67
:1053100000D1ABE0A44BE35C022B00D17FE1A34BB7
:10532000E35C022B00D196E1002E08D1A04B1B7844
:10533000002B04D180219F4A90338902D150904B99
:105340000A229C6C6B460021981D00F005FCC023CE
:10535000640501AE9B00640D33803000029401218E
:10536000802400F02FFB944EA402EB0669D4802326
:105370005B021D4214D0012223211C43824B5A544C
:10538000DA70C0238D4ADB00019302AB03CA03C36A
:10539000012101A800F016FB8022864B92021A65BB
:1053A00080235B011D4233D18023DB011D421CD1D0
:1053B00080231B021D4204D1AC4200D0C8E105B0DD
:1053C000F0BD1C436B460A220021981D00F0C4FB6F
:1053D000A02301AEDB0033800121300000F0F2FA9F
:1053E0008022744B12011A65E6E71C436B460A22C1
:1053F0000021981D00F0B0FB802301AEDB0033805C
:105400000121300000F0DEFA10226A4B1A65CFE766
:1054100000221C435A4B01AE1A60FFF795FE6B4603
:105420000A220021981D00F097FB80235B00338047
:105430000121300000F0C6FA80225E4B12031A658B
:10544000B2E7FFF7B5FE340091E73833E65C002E93
:1054500000D11AE70233E25C002A00D115E72000F0
:1054600000222030E25400F04FFA0EE7544BE75C84
:10547000002F00D14EE70233E25C002A00D060E149
:10548000494BE35C022B00D1DBE0484BE35C022B91
:1054900000D054E74B4BE35C002B00D0E0E04EE73C
:1054A000494BE75C002F00D12FE70233E25C002A72
:1054B00000D03EE13E0028E7444BE75C002F00D1DE
:1054C0001EE70233E25C002A00D02AE13E0017E723
:1054D0003F4BE75C002F00D10DE70233E25C002A6E
:1054E00000D016E13E0006E73A4BE75C002F00D102
:1054F000FCE60233E25C002A00D002E13E00F5E661
:10550000354BE75C002F00D1EBE60233E25C002A6A
:1055100000D0EEE03E00E4E6F933FF33E75C002F15
:1055200000D1D9E60233E25C002A00D0D8E03E0088
:10553000D2E6B933FF33E75C002F00D1C6E6023371
:10554000E25C002A00D0C2E03E00BFE67933FF33C0
:10555000E75C002F00D1B3E60233E25C002A00D002
:10556000ACE03E00ACE63933FF33E75C002F00D1FE
:10557000A0E60233E25C002A00D096E03E0099E605
:10558000000011500040054020180020181800208D
:105590003B0200007B020000BB020000FB02000097
:1055A0003B0300007B030000BB030000FB03000083
:1055B000861C002000301150100002000000105026
:1055C0007A030000FA0300003A030000FA02000028
:1055D000BA0200007A0200003A020000F833E75CE9
:1055E000002F00D160E60233E25C002A55D13E0074
:1055F0005AE6B833E75C002F00D150E60233E25C94
:10560000002A42D13E004AE67833E75C002F00D101
:1056100040E60233E25C002A2FD13E003AE64F4BCF
:10562000E35C002B00D17AE6EF239B00E25C002ACA
:1056300000D12AE70022E2541C3BE01800F064F994
:1056400023E7464BE35C002BEED1454BE35C022B9A
:1056500000D074E63E00434BE35C002B00D163E6D0
:10566000FF239B00E25C002A00D168E60022E2549E
:105670001C3BE01800F048F961E620000022603091
:10568000E2543E0000F040F904E620000022A03081
:10569000E2543E0000F038F901E620000022E0303C
:1056A000E2543E0000F030F9FEE5200000222130F7
:1056B000FF30E2543E0000F027F9FBE52000002215
:1056C0006130FF30E2543E0000F01EF9F8E52000A2
:1056D0000022A130FF30E2543E0000F015F9F5E55C
:1056E00020000022E130FF30E2543E0000F00CF9CF
:1056F000F2E50022E2541C3BE01800F005F93E0000
:10570000EFE50022E2541C3BE01800F0FDF83E00FB
:10571000ECE50022E2541C3BE01800F0F5F83E00F6
:10572000E9E50022E2541C3BE01800F0EDF83E00F1
:10573000E6E50022E2541C3BE01800F0E5F83E00EC
:10574000E3E50022E2541C3BE01800F0DDF897E6A8
:1057500021000548694000F0F7F9C046BA0300008F
:10576000FB030000FA0300004C4D0010084A030040
:10577000126C0020920703D49A78D209012A00D033
:105780007047D87E023843425841C0B2F8E7C0465D
:105790000000115010B5FFF7E9FF00280CD00749B1
:1057A000074B8C46074A9B6A126863449B1A002089
:1057B000C6229A424041C0B210BDC046E0FCFFFF85
:1057C0000040054018180020F8B5028B838A0400B9
:1057D0000F00161C9A4200D91E1CE2788021150089
:1057E000681E8541B6B2C90031436D030D430121E6
:1057F0004A409B1BE27062789BB2A382002A09D0C8
:10580000002B02D18023DB011D43002F00D02D048B
:105810002800F8BDE068BB01C0183200216900F023
:105820008BF923699B19236180231B021D43A38AE3
:10583000E6E7C046836870B504001D68002900D003
:105840002D0C6378AD05AD0D002B09D1E38AEB1863
:10585000E382238BAB4201D90023A382280070BDD1
:10586000E368890159182A00206900F065F9E38A84
:10587000EB18E38223695B192361EAE710B50400A2
:10588000836800211B68FFF7D5FF63681B685B0016
:1058900002D5238B834200D010BD01212000FFF7E9
:1058A000C9FFF9E700238376436103617047C0466F
:1058B00010B58368002901D01C682140002A11D04E
:1058C0008024E400114322420CD01A6822420BD1FA
:1058D0000A4A0A401A60FFE7FFE7FFE7FFE7FFE732
:1058E000FFE78368196010BD81787F20CA09044BE7
:1058F00092000140D258034800F026F9FFFBFFFF59
:10590000B00E0020604D0010436870B50021802566
:105910001E680400FFF758FF134B6D011B6C054315
:105920009B070FD5A3785B060FD0104B1E4080233A
:105930009B05334362680021136020002A00FFF7B3
:10594000B7FF70BDA378DB09EFD0A38A002BECD0A2
:1059500001212000FFF738FFA023054ADB05324074
:1059600005431343E6E7C04600001150FFFFFFAFB9
:10597000FFFFFFDF70B5857E0400002D14D0FFF718
:105980007DFFA38A002B01D1280070BD2000FFF706
:1059900001FF002803D0012300252377F4E720002E
:1059A000FFF7B2FF0025EFE781787F20CA09034B9C
:1059B00092000140D258024800F0C6F8B00E002014
:1059C000804D0010F0B54378050085B0042B00D160
:1059D00075E046D8022B00D183E0032B55D1504E01
:1059E000504A00243378002A00D192E04E4F03E061
:1059F0000134E4B29C4213D8A342F9D96200396859
:105A00001219D2008A18002AF2D05269002AEFD067
:105A100069682878904701343378E4B29C42EBD926
:105A2000424B1A78520748D504211A788A431A70D3
:105A30006B460A220021981D00F08EF86A462B78EA
:105A40001371052353713A4B1C686269EFF310819F
:105A500072B61368002BFCD0BFF35F8FA16101A960
:105A600020E0052B11D1314B1A78D20725D504211E
:105A70001A788A431A702E4B1C686269EFF3108102
:105A800072B61368002B09D1FBE7294B1C686269C9
:105A9000EFF3108172B61368002BFCD0BFF35F8F59
:105AA000A1612900200000F05FF86269A369BFF3DB
:105AB0005F8F0021116083F3108805B0F0BD1B4B90
:105AC0001A78D207F9D504211A780A431A70184BAC
